{"_format":"hh-sol-artifact-1","contractName":"Fee","sourceName":"contracts/Fee.sol","abi":[{"inputs":[{"internalType":"address","name":"_feeCollectorAddress","type":"address"}],"stateMutability":"nonpayable","type":"constructor"},{"inputs":[],"name":"NoAccess","type":"error"},{"inputs":[],"name":"NoAddress0","type":"error"},{"inputs":[],"name":"creationFee","outputs":[{"internalType":"uint256","name":"","type":"uint256"}],"stateMutability":"view","type":"function"},{"inputs":[],"name":"feeCollectorAddress","outputs":[{"internalType":"address","name":"","type":"address"}],"stateMutability":"view","type":"function"},{"inputs":[],"name":"getChainId","outputs":[{"internalType":"uint256","name":"","type":"uint256"}],"stateMutability":"view","type":"function"},{"inputs":[],"name":"getCreationFee","outputs":[{"internalType":"uint256","name":"","type":"uint256"}],"stateMutability":"view","type":"function"},{"inputs":[],"name":"getCreationFeeARB","outputs":[{"internalType":"uint256","name":"","type":"uint256"}],"stateMutability":"view","type":"function"},{"inputs":[],"name":"getCreationFeeETH","outputs":[{"internalType":"uint256","name":"","type":"uint256"}],"stateMutability":"view","type":"function"},{"inputs":[],"name":"getCreationFeeTezos","outputs":[{"internalType":"uint256","name":"","type":"uint256"}],"stateMutability":"view","type":"function"},{"inputs":[],"name":"getCreationFeeUSDC","outputs":[{"internalType":"uint256","name":"","type":"uint256"}],"stateMutability":"view","type":"function"},{"inputs":[],"name":"getCreationFeeXFI","outputs":[{"internalType":"uint256","name":"","type":"uint256"}],"stateMutability":"view","type":"function"},{"inputs":[],"name":"getFeeCollectorAddress","outputs":[{"internalType":"address","name":"","type":"address"}],"stateMutability":"view","type":"function"},{"inputs":[],"name":"getPriceInfo","outputs":[],"stateMutability":"nonpayable","type":"function"},{"inputs":[],"name":"getTransactionFee","outputs":[{"internalType":"uint256","name":"","type":"uint256"}],"stateMutability":"view","type":"function"},{"inputs":[],"name":"getTransactionFeeETH","outputs":[{"internalType":"uint256","name":"","type":"uint256"}],"stateMutability":"view","type":"function"},{"inputs":[],"name":"getTransactionFeeTezos","outputs":[{"internalType":"uint256","name":"","type":"uint256"}],"stateMutability":"view","type":"function"},{"inputs":[],"name":"getTransactionFeeXFI","outputs":[{"internalType":"uint256","name":"","type":"uint256"}],"stateMutability":"view","type":"function"},{"inputs":[],"name":"latestPrice","outputs":[{"internalType":"uint256","name":"","type":"uint256"}],"stateMutability":"view","type":"function"},{"inputs":[],"name":"requiredValueInWei","outputs":[{"internalType":"uint256","name":"","type":"uint256"}],"stateMutability":"view","type":"function"},{"inputs":[],"name":"timestampOflatestPrice","outputs":[{"internalType":"uint256","name":"","type":"uint256"}],"stateMutability":"view","type":"function"},{"inputs":[],"name":"transactionFee","outputs":[{"internalType":"uint256","name":"","type":"uint256"}],"stateMutability":"view","type":"function"}],"bytecode":"0x6102403461042157601f610eb238819003918201601f19168301916001600160401b038311848410176104265780849260209460405283398101031261042157516001600160a01b03811690819003610421577333df80cdf0c9ff686261b11263d9f4a3ccc3d07f6080526509184e72a0006004556509184e72a000600555600260075573639fe6ab55c921f74e7fac1ee960c0b6293ba61260a05273b2a824043730fe05f3da2efafa1cbbe83fa548d660c0527350834f3163758fcc1df9973b6e91f0f0f0434ad360e05273d30e2101a97dcbaebcbc04f14c3f624e67a351656101005273d1092a65338d049db68d7be6bd89d17a0929945e61012052730153002d20b96532c639313c2d54c3da091093096101405273694aa1769357215de4fac081bf1f309adc3253066101605273b2a824043730fe05f3da2efafa1cbbe83fa548d66101805273a2f78ab2355fe2f984d808b5cee7fd0a93d5270e6101a0527333df80cdf0c9ff686261b11263d9f4a3ccc3d07f6101c05273dac17f958d2ee523a2206206994597c13d831ec76101e05273a2f78ab2355fe2f984d808b5cee7fd0a93d5270e61020052732880ab155794e7179c9ee2e38200202908c17b4361022052600160085560016009556000600a55624c4b40600b55621e8480600c55620f4240600d55801561041057600680546001600160a01b0319169190911790554661a4b1036102f157600180546001600160a01b031990811673639fe6ab55c921f74e7fac1ee960c0b6293ba6121790915560028054821673b2a824043730fe05f3da2efafa1cbbe83fa548d6179055600380549091167350834f3163758fcc1df9973b6e91f0f0f0434ad31790555b604051610a75908161043d8239608051818181610347015281816104570152610782015260a05181505060c05181505060e05181505061010051815050610120518150506101405181505061016051815050610180518150506101a0518150506101c0518150506101e0518150506102005181505061022051815050f35b4662066eee0361036757600180546001600160a01b031990811673d30e2101a97dcbaebcbc04f14c3f624e67a351651790915560028054821673d1092a65338d049db68d7be6bd89d17a0929945e17905560038054909116730153002d20b96532c639313c2d54c3da091093091790555b610273565b4662aa36a7036103dc57600180546001600160a01b031990811673694aa1769357215de4fac081bf1f309adc3253061790915560028054821673b2a824043730fe05f3da2efafa1cbbe83fa548d61790556003805490911673a2f78ab2355fe2f984d808b5cee7fd0a93d5270e179055610273565b61a729460361036257600080546001600160a01b031916732880ab155794e7179c9ee2e38200202908c17b43179055610273565b630a069e3d60e11b60005260046000fd5b600080fd5b634e487b7160e01b600052604160045260246000fdfe608080604052600436101561001357600080fd5b60003560e01c90816327f01afa146107f757508063330227bf146107205780633408e47014610705578063455ea3e81461066d57806385d79102146105865780638da7dae3146105a45780639ed3edf014610586578063a3e6ba9414610568578063ab35c79e146104f5578063b904705a14610413578063b9592f7b146103f5578063bf2d75fb146101e5578063c8c9e89314610303578063db07b68e146102e5578063dce0b4e4146102e5578063e3784a541461020c578063f108e225146101e5578063f3382c53146101135763fa351e6c146100f057600080fd5b3461010e57600036600319011261010e576020600954604051908152f35b600080fd5b3461010e57600036600319011261010e57600460a06001600160a01b036002541660405192838092633fabe5a360e21b82525afa9081156101d9576000916101a5575b50600b54670de0b6b3a7640000810290808204670de0b6b3a7640000149015171561018f57602091610187916108e9565b604051908152f35b634e487b7160e01b600052601160045260246000fd5b6101c7915060a03d60a0116101d2575b6101bf8183610865565b8101906108b4565b505050905081610156565b503d6101b5565b6040513d6000823e3d90fd5b3461010e57600036600319011261010e5760206001600160a01b0360065416604051908152f35b3461010e57600036600319011261010e57602460806001600160a01b0360005416604051928380926396834ad360e01b82527f0affd4b8ad136a21d79bc82450a325ee12ff55a235abc242666e423b8bcffd0360048301525afa9081156101d9576000916102b6575b505160070b610286600082136109da565b600b54670de0b6b3a7640000810290808204670de0b6b3a7640000149015171561018f57602091610187916108e9565b6102d8915060803d6080116102de575b6102d08183610865565b810190610947565b81610275565b503d6102c6565b3461010e57600036600319011261010e576020600454604051908152f35b3461010e57600036600319011261010e57604080516304b01c2560e51b81526020600482015260076024820152661611924bd554d160ca1b604482015290816064817f00000000000000000000000000000000000000000000000000000000000000006001600160a01b03165afa9081156101d9576000916103c5575b50600c5490670de0b6b3a7640000820291808304670de0b6b3a7640000149015171561018f576020916fffffffffffffffffffffffffffffffff6101879216906108e9565b6103e7915060403d6040116103ee575b6103df8183610865565b810190610926565b5081610380565b503d6103d5565b3461010e57600036600319011261010e576020600a54604051908152f35b3461010e57600036600319011261010e57604080516304b01c2560e51b81526020600482015260076024820152661611924bd554d160ca1b604482015290816064817f00000000000000000000000000000000000000000000000000000000000000006001600160a01b03165afa9081156101d9576000916104d5575b50600d5490670de0b6b3a7640000820291808304670de0b6b3a7640000149015171561018f576020916fffffffffffffffffffffffffffffffff6101879216906108e9565b6104ee915060403d6040116103ee576103df8183610865565b5081610490565b3461010e57600036600319011261010e57600460a06001600160a01b036001541660405192838092633fabe5a360e21b82525afa9081156101d9576000916101a55750600b54670de0b6b3a7640000810290808204670de0b6b3a7640000149015171561018f57602091610187916108e9565b3461010e57600036600319011261010e576020600854604051908152f35b3461010e57600036600319011261010e576020600554604051908152f35b3461010e57600036600319011261010e57602460806001600160a01b0360005416604051928380926396834ad360e01b82527f0affd4b8ad136a21d79bc82450a325ee12ff55a235abc242666e423b8bcffd0360048301525afa9081156101d95760009161064e575b505160070b61061e600082136109da565b600d54670de0b6b3a7640000810290808204670de0b6b3a7640000149015171561018f57602091610187916108e9565b610667915060803d6080116102de576102d08183610865565b8161060d565b3461010e57600036600319011261010e57600460a06001600160a01b036001541660405192838092633fabe5a360e21b82525afa9081156101d9576000916106e1575b50600d54670de0b6b3a7640000810290808204670de0b6b3a7640000149015171561018f57602091610187916108e9565b6106fa915060a03d60a0116101d2576101bf8183610865565b5050509050816106b0565b3461010e57600036600319011261010e576020604051468152f35b3461010e57600036600319011261010e576040516304b01c2560e51b815260206004820152600860248201527f574554482f55534400000000000000000000000000000000000000000000000060448201526040816064816001600160a01b037f0000000000000000000000000000000000000000000000000000000000000000165afa9081156101d9576fffffffffffffffffffffffffffffffff916000916000916107d4575b50821660095516600855005b8392506107f0915060403d6040116103ee576103df8183610865565b90916107c8565b3461010e57600036600319011261010e5760a0816004816001600160a01b0360035416633fabe5a360e21b82525afa9081156101d9576000916101a55750600b54670de0b6b3a7640000810290808204670de0b6b3a7640000149015171561018f57602091610187916108e9565b90601f8019910116810190811067ffffffffffffffff82111761088757604052565b634e487b7160e01b600052604160045260246000fd5b519069ffffffffffffffffffff8216820361010e57565b908160a091031261010e576108c88161089d565b916020820151916040810151916108e660806060840151930161089d565b90565b81156108f3570490565b634e487b7160e01b600052601260045260246000fd5b51906fffffffffffffffffffffffffffffffff8216820361010e57565b919082604091031261010e576108e6602061094084610909565b9301610909565b9081608091031261010e576040519060006080830167ffffffffffffffff8111848210176109c65760405281518060070b81036109c2578352602082015167ffffffffffffffff811681036109c25760208401526040820151908160030b82036109bf57509060609160408401520151606082015290565b80fd5b5080fd5b602482634e487b7160e01b81526041600452fd5b156109e157565b60646040517f08c379a000000000000000000000000000000000000000000000000000000000815260206004820152600e60248201527f4e656761746976652070726963650000000000000000000000000000000000006044820152fdfea264697066735822122001130a10a87a4019a7f4ef822670d9fda9a119865568e189bd6812e465d8e31164736f6c634300081c0033","linkReferences":{},"deployedLinkReferences":{}}